{
  "_format": "hh-sol-artifact-1",
  "contractName": "IdleCurve",
  "sourceName": "contracts/wrappers/IdleCurve.sol",
  "abi": [
    {
      "anonymous": false,
      "inputs": [
        {
          "indexed": true,
          "internalType": "address",
          "name": "previousOwner",
          "type": "address"
        },
        {
          "indexed": true,
          "internalType": "address",
          "name": "newOwner",
          "type": "address"
        }
      ],
      "name": "OwnershipTransferred",
      "type": "event"
    },
    {
      "constant": true,
      "inputs": [],
      "name": "availableLiquidity",
      "outputs": [
        {
          "internalType": "uint256",
          "name": "",
          "type": "uint256"
        }
      ],
      "payable": false,
      "stateMutability": "view",
      "type": "function"
    },
    {
      "constant": true,
      "inputs": [],
      "name": "crvToken",
      "outputs": [
        {
          "internalType": "address",
          "name": "",
          "type": "address"
        }
      ],
      "payable": false,
      "stateMutability": "view",
      "type": "function"
    },
    {
      "constant": true,
      "inputs": [],
      "name": "getAPR",
      "outputs": [
        {
          "internalType": "uint256",
          "name": "",
          "type": "uint256"
        }
      ],
      "payable": false,
      "stateMutability": "view",
      "type": "function"
    },
    {
      "constant": true,
      "inputs": [],
      "name": "getPriceInToken",
      "outputs": [
        {
          "internalType": "uint256",
          "name": "",
          "type": "uint256"
        }
      ],
      "payable": false,
      "stateMutability": "view",
      "type": "function"
    },
    {
      "constant": true,
      "inputs": [],
      "name": "idleToken",
      "outputs": [
        {
          "internalType": "address",
          "name": "",
          "type": "address"
        }
      ],
      "payable": false,
      "stateMutability": "view",
      "type": "function"
    },
    {
      "constant": false,
      "inputs": [
        {
          "internalType": "address",
          "name": "_token",
          "type": "address"
        },
        {
          "internalType": "address",
          "name": "_idleToken",
          "type": "address"
        }
      ],
      "name": "initialize",
      "outputs": [],
      "payable": false,
      "stateMutability": "nonpayable",
      "type": "function"
    },
    {
      "constant": true,
      "inputs": [],
      "name": "initialized",
      "outputs": [
        {
          "internalType": "bool",
          "name": "",
          "type": "bool"
        }
      ],
      "payable": false,
      "stateMutability": "view",
      "type": "function"
    },
    {
      "constant": true,
      "inputs": [],
      "name": "isOwner",
      "outputs": [
        {
          "internalType": "bool",
          "name": "",
          "type": "bool"
        }
      ],
      "payable": false,
      "stateMutability": "view",
      "type": "function"
    },
    {
      "constant": false,
      "inputs": [],
      "name": "mint",
      "outputs": [
        {
          "internalType": "uint256",
          "name": "crvTokens",
          "type": "uint256"
        }
      ],
      "payable": false,
      "stateMutability": "nonpayable",
      "type": "function"
    },
    {
      "constant": true,
      "inputs": [
        {
          "internalType": "uint256",
          "name": "_amount",
          "type": "uint256"
        }
      ],
      "name": "nextSupplyRate",
      "outputs": [
        {
          "internalType": "uint256",
          "name": "",
          "type": "uint256"
        }
      ],
      "payable": false,
      "stateMutability": "view",
      "type": "function"
    },
    {
      "constant": true,
      "inputs": [
        {
          "internalType": "uint256[]",
          "name": "params",
          "type": "uint256[]"
        }
      ],
      "name": "nextSupplyRateWithParams",
      "outputs": [
        {
          "internalType": "uint256",
          "name": "",
          "type": "uint256"
        }
      ],
      "payable": false,
      "stateMutability": "view",
      "type": "function"
    },
    {
      "constant": true,
      "inputs": [],
      "name": "owner",
      "outputs": [
        {
          "internalType": "address",
          "name": "",
          "type": "address"
        }
      ],
      "payable": false,
      "stateMutability": "view",
      "type": "function"
    },
    {
      "constant": false,
      "inputs": [
        {
          "internalType": "address",
          "name": "_account",
          "type": "address"
        }
      ],
      "name": "redeem",
      "outputs": [
        {
          "internalType": "uint256",
          "name": "tokens",
          "type": "uint256"
        }
      ],
      "payable": false,
      "stateMutability": "nonpayable",
      "type": "function"
    },
    {
      "constant": false,
      "inputs": [],
      "name": "renounceOwnership",
      "outputs": [],
      "payable": false,
      "stateMutability": "nonpayable",
      "type": "function"
    },
    {
      "constant": true,
      "inputs": [],
      "name": "token",
      "outputs": [
        {
          "internalType": "address",
          "name": "",
          "type": "address"
        }
      ],
      "payable": false,
      "stateMutability": "view",
      "type": "function"
    },
    {
      "constant": false,
      "inputs": [
        {
          "internalType": "address",
          "name": "newOwner",
          "type": "address"
        }
      ],
      "name": "transferOwnership",
      "outputs": [],
      "payable": false,
      "stateMutability": "nonpayable",
      "type": "function"
    },
    {
      "constant": true,
      "inputs": [],
      "name": "underlying",
      "outputs": [
        {
          "internalType": "address",
          "name": "",
          "type": "address"
        }
      ],
      "payable": false,
      "stateMutability": "view",
      "type": "function"
    }
  ],
  "bytecode": "0x6080604052736c3f90f043a72fa612cbac8115ee7e52bde6e490600360006101000a81548173ffffffffffffffffffffffffffffffffffffffff021916908373ffffffffffffffffffffffffffffffffffffffff160217905550600061006961010c60201b60201c565b9050806000806101000a81548173ffffffffffffffffffffffffffffffffffffffff021916908373ffffffffffffffffffffffffffffffffffffffff1602179055508073ffffffffffffffffffffffffffffffffffffffff16600073ffffffffffffffffffffffffffffffffffffffff167f8be0079c531659141344cd1fd0a4f28419497f9722a3daafe3b4186f6b6457e060405160405180910390a350610114565b600033905090565b611f24806101236000396000f3fe608060405234801561001057600080fd5b506004361061010b5760003560e01c806374375359116100a257806395a2251f1161007157806395a2251f14610274578063c89d5b8b146102a4578063ccdd0149146102c2578063f2fde38b146102f2578063fc0c546a1461030e5761010b565b806374375359146101ea5780638da5cb5b146102085780638f32d59b1461022657806393fd9219146102445761010b565b806332d7d66d116100de57806332d7d66d14610188578063485cc955146101a65780636f307dc3146101c2578063715018a6146101e05761010b565b806302bbce46146101105780631249c58b1461012e578063158ef93e1461014c5780632dd60c5e1461016a575b600080fd5b61011861032c565b6040516101259190611cf5565b60405180910390f35b61013661033c565b6040516101439190611cf5565b60405180910390f35b61015461063a565b6040516101619190611b9f565b60405180910390f35b61017261064d565b60405161017f9190611b09565b60405180910390f35b610190610673565b60405161019d9190611b09565b60405180910390f35b6101c060048036036101bb919081019061164e565b610699565b005b6101ca610a3a565b6040516101d79190611b09565b60405180910390f35b6101e8610a60565b005b6101f2610b66565b6040516101ff9190611cf5565b60405180910390f35b610210610c3a565b60405161021d9190611b09565b60405180910390f35b61022e610c63565b60405161023b9190611b9f565b60405180910390f35b61025e6004803603610259919081019061168a565b610cc1565b60405161026b9190611cf5565b60405180910390f35b61028e600480360361028991908101906115fc565b610ccb565b60405161029b9190611cf5565b60405180910390f35b6102ac610f7c565b6040516102b99190611cf5565b60405180910390f35b6102dc60048036036102d791908101906116f4565b610f84565b6040516102e99190611cf5565b60405180910390f35b61030c600480360361030791908101906115fc565b610f8e565b005b610316610fe1565b6040516103239190611b09565b60405180910390f35b6000670de0b6b3a7640000905090565b6000600460009054906101000a900473ffffffffffffffffffffffffffffffffffffffff1673ffffffffffffffffffffffffffffffffffffffff163373ffffffffffffffffffffffffffffffffffffffff16146103ce576040517f08c379a00000000000000000000000000000000000000000000000000000000081526004016103c590611bd5565b60405180910390fd5b6000600260009054906101000a900473ffffffffffffffffffffffffffffffffffffffff1673ffffffffffffffffffffffffffffffffffffffff166370a08231306040518263ffffffff1660e01b815260040161042b9190611b09565b60206040518083038186803b15801561044357600080fd5b505afa158015610457573d6000803e3d6000fd5b505050506040513d601f19601f8201168201806040525061047b919081019061171d565b9050600081141561048f5781915050610637565b600160009054906101000a900473ffffffffffffffffffffffffffffffffffffffff1673ffffffffffffffffffffffffffffffffffffffff16634515cef3604051806060016040528084815260200160008152602001600081525060006040518363ffffffff1660e01b8152600401610509929190611b76565b600060405180830381600087803b15801561052357600080fd5b505af1158015610537573d6000803e3d6000fd5b50505050600360009054906101000a900473ffffffffffffffffffffffffffffffffffffffff1673ffffffffffffffffffffffffffffffffffffffff166370a08231306040518263ffffffff1660e01b81526004016105969190611b09565b60206040518083038186803b1580156105ae57600080fd5b505afa1580156105c2573d6000803e3d6000fd5b505050506040513d601f19601f820116820180604052506105e6919081019061171d565b91506106353383600360009054906101000a900473ffffffffffffffffffffffffffffffffffffffff1673ffffffffffffffffffffffffffffffffffffffff166110079092919063ffffffff16565b505b90565b600460149054906101000a900460ff1681565b600460009054906101000a900473ffffffffffffffffffffffffffffffffffffffff1681565b600360009054906101000a900473ffffffffffffffffffffffffffffffffffffffff1681565b600460149054906101000a900460ff16156106e9576040517f08c379a00000000000000000000000000000000000000000000000000000000081526004016106e090611c75565b60405180910390fd5b600073ffffffffffffffffffffffffffffffffffffffff168273ffffffffffffffffffffffffffffffffffffffff161415610759576040517f08c379a000000000000000000000000000000000000000000000000000000000815260040161075090611bf5565b60405180910390fd5b81600160006101000a81548173ffffffffffffffffffffffffffffffffffffffff021916908373ffffffffffffffffffffffffffffffffffffffff1602179055508173ffffffffffffffffffffffffffffffffffffffff1663c661065760006040518263ffffffff1660e01b81526004016107d49190611bba565b60206040518083038186803b1580156107ec57600080fd5b505afa158015610800573d6000803e3d6000fd5b505050506040513d601f19601f820116820180604052506108249190810190611625565b600260006101000a81548173ffffffffffffffffffffffffffffffffffffffff021916908373ffffffffffffffffffffffffffffffffffffffff16021790555080600460006101000a81548173ffffffffffffffffffffffffffffffffffffffff021916908373ffffffffffffffffffffffffffffffffffffffff1602179055506108f3826000600260009054906101000a900473ffffffffffffffffffffffffffffffffffffffff1673ffffffffffffffffffffffffffffffffffffffff166110a69092919063ffffffff16565b610960827fffffffffffffffffffffffffffffffffffffffffffffffffffffffffffffffff600260009054906101000a900473ffffffffffffffffffffffffffffffffffffffff1673ffffffffffffffffffffffffffffffffffffffff166110a69092919063ffffffff16565b6109ae826000600360009054906101000a900473ffffffffffffffffffffffffffffffffffffffff1673ffffffffffffffffffffffffffffffffffffffff166110a69092919063ffffffff16565b610a1b827fffffffffffffffffffffffffffffffffffffffffffffffffffffffffffffffff600360009054906101000a900473ffffffffffffffffffffffffffffffffffffffff1673ffffffffffffffffffffffffffffffffffffffff166110a69092919063ffffffff16565b6001600460146101000a81548160ff0219169083151502179055505050565b600260009054906101000a900473ffffffffffffffffffffffffffffffffffffffff1681565b610a68610c63565b610aa7576040517f08c379a0000000000000000000000000000000000000000000000000000000008152600401610a9e90611c55565b60405180910390fd5b600073ffffffffffffffffffffffffffffffffffffffff166000809054906101000a900473ffffffffffffffffffffffffffffffffffffffff1673ffffffffffffffffffffffffffffffffffffffff167f8be0079c531659141344cd1fd0a4f28419497f9722a3daafe3b4186f6b6457e060405160405180910390a360008060006101000a81548173ffffffffffffffffffffffffffffffffffffffff021916908373ffffffffffffffffffffffffffffffffffffffff160217905550565b6000600260009054906101000a900473ffffffffffffffffffffffffffffffffffffffff1673ffffffffffffffffffffffffffffffffffffffff166370a08231600160009054906101000a900473ffffffffffffffffffffffffffffffffffffffff166040518263ffffffff1660e01b8152600401610be59190611b09565b60206040518083038186803b158015610bfd57600080fd5b505afa158015610c11573d6000803e3d6000fd5b505050506040513d601f19601f82011682018060405250610c35919081019061171d565b905090565b60008060009054906101000a900473ffffffffffffffffffffffffffffffffffffffff16905090565b60008060009054906101000a900473ffffffffffffffffffffffffffffffffffffffff1673ffffffffffffffffffffffffffffffffffffffff16610ca561121d565b73ffffffffffffffffffffffffffffffffffffffff1614905090565b6000809050919050565b6000600460009054906101000a900473ffffffffffffffffffffffffffffffffffffffff1673ffffffffffffffffffffffffffffffffffffffff163373ffffffffffffffffffffffffffffffffffffffff1614610d5d576040517f08c379a0000000000000000000000000000000000000000000000000000000008152600401610d5490611bd5565b60405180910390fd5b600160009054906101000a900473ffffffffffffffffffffffffffffffffffffffff1673ffffffffffffffffffffffffffffffffffffffff16631a4d01d2600360009054906101000a900473ffffffffffffffffffffffffffffffffffffffff1673ffffffffffffffffffffffffffffffffffffffff166370a08231306040518263ffffffff1660e01b8152600401610df69190611b09565b60206040518083038186803b158015610e0e57600080fd5b505afa158015610e22573d6000803e3d6000fd5b505050506040513d601f19601f82011682018060405250610e46919081019061171d565b6000806040518463ffffffff1660e01b8152600401610e6793929190611d10565b600060405180830381600087803b158015610e8157600080fd5b505af1158015610e95573d6000803e3d6000fd5b505050506000600260009054906101000a900473ffffffffffffffffffffffffffffffffffffffff1690508073ffffffffffffffffffffffffffffffffffffffff166370a08231306040518263ffffffff1660e01b8152600401610ef99190611b09565b60206040518083038186803b158015610f1157600080fd5b505afa158015610f25573d6000803e3d6000fd5b505050506040513d601f19601f82011682018060405250610f49919081019061171d565b9150610f7683838373ffffffffffffffffffffffffffffffffffffffff166110079092919063ffffffff16565b50919050565b600080905090565b6000809050919050565b610f96610c63565b610fd5576040517f08c379a0000000000000000000000000000000000000000000000000000000008152600401610fcc90611c55565b60405180910390fd5b610fde81611225565b50565b600160009054906101000a900473ffffffffffffffffffffffffffffffffffffffff1681565b6110a1838473ffffffffffffffffffffffffffffffffffffffff1663a9059cbb905060e01b848460405160240161103f929190611b4d565b604051602081830303815290604052907bffffffffffffffffffffffffffffffffffffffffffffffffffffffff19166020820180517bffffffffffffffffffffffffffffffffffffffffffffffffffffffff8381831617835250505050611353565b505050565b600081148061113f575060008373ffffffffffffffffffffffffffffffffffffffff1663dd62ed3e30856040518363ffffffff1660e01b81526004016110ed929190611b24565b60206040518083038186803b15801561110557600080fd5b505afa158015611119573d6000803e3d6000fd5b505050506040513d601f19601f8201168201806040525061113d919081019061171d565b145b61117e576040517f08c379a000000000000000000000000000000000000000000000000000000000815260040161117590611cb5565b60405180910390fd5b611218838473ffffffffffffffffffffffffffffffffffffffff1663095ea7b3905060e01b84846040516024016111b6929190611b4d565b604051602081830303815290604052907bffffffffffffffffffffffffffffffffffffffffffffffffffffffff19166020820180517bffffffffffffffffffffffffffffffffffffffffffffffffffffffff8381831617835250505050611353565b505050565b600033905090565b600073ffffffffffffffffffffffffffffffffffffffff168173ffffffffffffffffffffffffffffffffffffffff161415611295576040517f08c379a000000000000000000000000000000000000000000000000000000000815260040161128c90611c15565b60405180910390fd5b8073ffffffffffffffffffffffffffffffffffffffff166000809054906101000a900473ffffffffffffffffffffffffffffffffffffffff1673ffffffffffffffffffffffffffffffffffffffff167f8be0079c531659141344cd1fd0a4f28419497f9722a3daafe3b4186f6b6457e060405160405180910390a3806000806101000a81548173ffffffffffffffffffffffffffffffffffffffff021916908373ffffffffffffffffffffffffffffffffffffffff16021790555050565b6113728273ffffffffffffffffffffffffffffffffffffffff166114c5565b6113b1576040517f08c379a00000000000000000000000000000000000000000000000000000000081526004016113a890611cd5565b60405180910390fd5b600060608373ffffffffffffffffffffffffffffffffffffffff16836040516113da9190611af2565b6000604051808303816000865af19150503d8060008114611417576040519150601f19603f3d011682016040523d82523d6000602084013e61141c565b606091505b509150915081611461576040517f08c379a000000000000000000000000000000000000000000000000000000000815260040161145890611c35565b60405180910390fd5b6000815111156114bf578080602001905161147f91908101906116cb565b6114be576040517f08c379a00000000000000000000000000000000000000000000000000000000081526004016114b590611c95565b60405180910390fd5b5b50505050565b60008060007fc5d2460186f7233c927e7db2dcc703c0e500b653ca82273b7bfad8045d85a47060001b9050833f915080821415801561150757506000801b8214155b92505050919050565b60008135905061151f81611e9c565b92915050565b60008151905061153481611e9c565b92915050565b600082601f83011261154b57600080fd5b813561155e61155982611d74565b611d47565b9150818183526020840193506020810190508385602084028201111561158357600080fd5b60005b838110156115b3578161159988826115d2565b845260208401935060208301925050600181019050611586565b5050505092915050565b6000815190506115cc81611eb3565b92915050565b6000813590506115e181611eca565b92915050565b6000815190506115f681611eca565b92915050565b60006020828403121561160e57600080fd5b600061161c84828501611510565b91505092915050565b60006020828403121561163757600080fd5b600061164584828501611525565b91505092915050565b6000806040838503121561166157600080fd5b600061166f85828601611510565b925050602061168085828601611510565b9150509250929050565b60006020828403121561169c57600080fd5b600082013567ffffffffffffffff8111156116b657600080fd5b6116c28482850161153a565b91505092915050565b6000602082840312156116dd57600080fd5b60006116eb848285016115bd565b91505092915050565b60006020828403121561170657600080fd5b6000611714848285016115d2565b91505092915050565b60006020828403121561172f57600080fd5b600061173d848285016115e7565b91505092915050565b60006117528383611ad4565b60208301905092915050565b61176781611df0565b82525050565b61177681611da6565b6117808184611dc9565b925061178b82611d9c565b8060005b838110156117bc5781516117a38782611746565b96506117ae83611dbc565b92505060018101905061178f565b505050505050565b6117cd81611e02565b82525050565b60006117de82611db1565b6117e88185611dd4565b93506117f8818560208601611e69565b80840191505092915050565b61180d81611e45565b82525050565b61181c81611e57565b82525050565b600061182f602083611ddf565b91507f4f776e61626c653a2063616c6c6572206973206e6f742049646c65546f6b656e6000830152602082019050919050565b600061186f601083611ddf565b91507f63724441493a20616464722069732030000000000000000000000000000000006000830152602082019050919050565b60006118af602683611ddf565b91507f4f776e61626c653a206e6577206f776e657220697320746865207a65726f206160008301527f64647265737300000000000000000000000000000000000000000000000000006020830152604082019050919050565b6000611915602083611ddf565b91507f5361666545524332303a206c6f772d6c6576656c2063616c6c206661696c65646000830152602082019050919050565b6000611955602083611ddf565b91507f4f776e61626c653a2063616c6c6572206973206e6f7420746865206f776e65726000830152602082019050919050565b6000611995601383611ddf565b91507f416c726561647920696e697469616c697a6564000000000000000000000000006000830152602082019050919050565b60006119d5602a83611ddf565b91507f5361666545524332303a204552433230206f7065726174696f6e20646964206e60008301527f6f742073756363656564000000000000000000000000000000000000000000006020830152604082019050919050565b6000611a3b603683611ddf565b91507f5361666545524332303a20617070726f76652066726f6d206e6f6e2d7a65726f60008301527f20746f206e6f6e2d7a65726f20616c6c6f77616e6365000000000000000000006020830152604082019050919050565b6000611aa1601f83611ddf565b91507f5361666545524332303a2063616c6c20746f206e6f6e2d636f6e7472616374006000830152602082019050919050565b611add81611e3b565b82525050565b611aec81611e3b565b82525050565b6000611afe82846117d3565b915081905092915050565b6000602082019050611b1e600083018461175e565b92915050565b6000604082019050611b39600083018561175e565b611b46602083018461175e565b9392505050565b6000604082019050611b62600083018561175e565b611b6f6020830184611ae3565b9392505050565b6000608082019050611b8b600083018561176d565b611b986060830184611813565b9392505050565b6000602082019050611bb460008301846117c4565b92915050565b6000602082019050611bcf6000830184611813565b92915050565b60006020820190508181036000830152611bee81611822565b9050919050565b60006020820190508181036000830152611c0e81611862565b9050919050565b60006020820190508181036000830152611c2e816118a2565b9050919050565b60006020820190508181036000830152611c4e81611908565b9050919050565b60006020820190508181036000830152611c6e81611948565b9050919050565b60006020820190508181036000830152611c8e81611988565b9050919050565b60006020820190508181036000830152611cae816119c8565b9050919050565b60006020820190508181036000830152611cce81611a2e565b9050919050565b60006020820190508181036000830152611cee81611a94565b9050919050565b6000602082019050611d0a6000830184611ae3565b92915050565b6000606082019050611d256000830186611ae3565b611d326020830185611804565b611d3f6040830184611813565b949350505050565b6000604051905081810181811067ffffffffffffffff82111715611d6a57600080fd5b8060405250919050565b600067ffffffffffffffff821115611d8b57600080fd5b602082029050602081019050919050565b6000819050919050565b600060039050919050565b600081519050919050565b6000602082019050919050565b600081905092915050565b600081905092915050565b600082825260208201905092915050565b6000611dfb82611e1b565b9050919050565b60008115159050919050565b600081600f0b9050919050565b600073ffffffffffffffffffffffffffffffffffffffff82169050919050565b6000819050919050565b6000611e5082611e0e565b9050919050565b6000611e6282611e3b565b9050919050565b60005b83811015611e87578082015181840152602081019050611e6c565b83811115611e96576000848401525b50505050565b611ea581611df0565b8114611eb057600080fd5b50565b611ebc81611e02565b8114611ec757600080fd5b50565b611ed381611e3b565b8114611ede57600080fd5b5056fea365627a7a723158201a4794572995202c94a39de1341885c366db96bccbdd16141d79342335e1e0676c6578706572696d656e74616cf564736f6c63430005100040",
  "linkReferences": {},
  "deployedLinkReferences": {}
}